{
  "contractName": "ArtAuction",
  "abi": [
    {
      "inputs": [],
      "stateMutability": "nonpayable",
      "type": "constructor"
    },
    {
      "anonymous": false,
      "inputs": [
        {
          "indexed": true,
          "internalType": "address",
          "name": "owner",
          "type": "address"
        },
        {
          "indexed": true,
          "internalType": "address",
          "name": "approved",
          "type": "address"
        },
        {
          "indexed": true,
          "internalType": "uint256",
          "name": "tokenId",
          "type": "uint256"
        }
      ],
      "name": "Approval",
      "type": "event"
    },
    {
      "anonymous": false,
      "inputs": [
        {
          "indexed": true,
          "internalType": "address",
          "name": "owner",
          "type": "address"
        },
        {
          "indexed": true,
          "internalType": "address",
          "name": "operator",
          "type": "address"
        },
        {
          "indexed": false,
          "internalType": "bool",
          "name": "approved",
          "type": "bool"
        }
      ],
      "name": "ApprovalForAll",
      "type": "event"
    },
    {
      "anonymous": false,
      "inputs": [
        {
          "indexed": false,
          "internalType": "address",
          "name": "bidder",
          "type": "address"
        },
        {
          "indexed": false,
          "internalType": "uint256",
          "name": "bid",
          "type": "uint256"
        },
        {
          "indexed": false,
          "internalType": "address",
          "name": "highestBidder",
          "type": "address"
        },
        {
          "indexed": false,
          "internalType": "uint256",
          "name": "highestBid",
          "type": "uint256"
        },
        {
          "indexed": false,
          "internalType": "uint256",
          "name": "highestBindingBid",
          "type": "uint256"
        }
      ],
      "name": "LogBid",
      "type": "event"
    },
    {
      "anonymous": false,
      "inputs": [],
      "name": "LogCanceled",
      "type": "event"
    },
    {
      "anonymous": false,
      "inputs": [
        {
          "indexed": false,
          "internalType": "address",
          "name": "withdrawer",
          "type": "address"
        },
        {
          "indexed": false,
          "internalType": "address",
          "name": "withdrawalAccount",
          "type": "address"
        },
        {
          "indexed": false,
          "internalType": "uint256",
          "name": "amount",
          "type": "uint256"
        }
      ],
      "name": "LogWithdrawal",
      "type": "event"
    },
    {
      "anonymous": false,
      "inputs": [
        {
          "indexed": true,
          "internalType": "address",
          "name": "from",
          "type": "address"
        },
        {
          "indexed": true,
          "internalType": "address",
          "name": "to",
          "type": "address"
        },
        {
          "indexed": true,
          "internalType": "uint256",
          "name": "tokenId",
          "type": "uint256"
        }
      ],
      "name": "Transfer",
      "type": "event"
    },
    {
      "inputs": [],
      "name": "_artItemIds",
      "outputs": [
        {
          "internalType": "uint256",
          "name": "",
          "type": "uint256"
        }
      ],
      "stateMutability": "view",
      "type": "function",
      "constant": true
    },
    {
      "inputs": [],
      "name": "_tokenIds",
      "outputs": [
        {
          "internalType": "uint256",
          "name": "",
          "type": "uint256"
        }
      ],
      "stateMutability": "view",
      "type": "function",
      "constant": true
    },
    {
      "inputs": [
        {
          "internalType": "address",
          "name": "to",
          "type": "address"
        },
        {
          "internalType": "uint256",
          "name": "tokenId",
          "type": "uint256"
        }
      ],
      "name": "approve",
      "outputs": [],
      "stateMutability": "nonpayable",
      "type": "function"
    },
    {
      "inputs": [
        {
          "internalType": "address",
          "name": "owner",
          "type": "address"
        }
      ],
      "name": "balanceOf",
      "outputs": [
        {
          "internalType": "uint256",
          "name": "",
          "type": "uint256"
        }
      ],
      "stateMutability": "view",
      "type": "function",
      "constant": true
    },
    {
      "inputs": [],
      "name": "baseURI",
      "outputs": [
        {
          "internalType": "string",
          "name": "",
          "type": "string"
        }
      ],
      "stateMutability": "view",
      "type": "function",
      "constant": true
    },
    {
      "inputs": [
        {
          "internalType": "uint256",
          "name": "",
          "type": "uint256"
        }
      ],
      "name": "bid",
      "outputs": [
        {
          "internalType": "uint256",
          "name": "highestBindingBid",
          "type": "uint256"
        },
        {
          "internalType": "address payable",
          "name": "highestBidder",
          "type": "address"
        }
      ],
      "stateMutability": "view",
      "type": "function",
      "constant": true
    },
    {
      "inputs": [],
      "name": "canceled",
      "outputs": [
        {
          "internalType": "bool",
          "name": "",
          "type": "bool"
        }
      ],
      "stateMutability": "view",
      "type": "function",
      "constant": true
    },
    {
      "inputs": [
        {
          "internalType": "uint256",
          "name": "",
          "type": "uint256"
        },
        {
          "internalType": "address",
          "name": "",
          "type": "address"
        }
      ],
      "name": "fundsByBidder",
      "outputs": [
        {
          "internalType": "uint256",
          "name": "",
          "type": "uint256"
        }
      ],
      "stateMutability": "view",
      "type": "function",
      "constant": true
    },
    {
      "inputs": [
        {
          "internalType": "uint256",
          "name": "tokenId",
          "type": "uint256"
        }
      ],
      "name": "getApproved",
      "outputs": [
        {
          "internalType": "address",
          "name": "",
          "type": "address"
        }
      ],
      "stateMutability": "view",
      "type": "function",
      "constant": true
    },
    {
      "inputs": [
        {
          "internalType": "address",
          "name": "owner",
          "type": "address"
        },
        {
          "internalType": "address",
          "name": "operator",
          "type": "address"
        }
      ],
      "name": "isApprovedForAll",
      "outputs": [
        {
          "internalType": "bool",
          "name": "",
          "type": "bool"
        }
      ],
      "stateMutability": "view",
      "type": "function",
      "constant": true
    },
    {
      "inputs": [],
      "name": "name",
      "outputs": [
        {
          "internalType": "string",
          "name": "",
          "type": "string"
        }
      ],
      "stateMutability": "view",
      "type": "function",
      "constant": true
    },
    {
      "inputs": [],
      "name": "owner",
      "outputs": [
        {
          "internalType": "address",
          "name": "",
          "type": "address"
        }
      ],
      "stateMutability": "view",
      "type": "function",
      "constant": true
    },
    {
      "inputs": [
        {
          "internalType": "uint256",
          "name": "tokenId",
          "type": "uint256"
        }
      ],
      "name": "ownerOf",
      "outputs": [
        {
          "internalType": "address",
          "name": "",
          "type": "address"
        }
      ],
      "stateMutability": "view",
      "type": "function",
      "constant": true
    },
    {
      "inputs": [
        {
          "internalType": "address",
          "name": "from",
          "type": "address"
        },
        {
          "internalType": "address",
          "name": "to",
          "type": "address"
        },
        {
          "internalType": "uint256",
          "name": "tokenId",
          "type": "uint256"
        }
      ],
      "name": "safeTransferFrom",
      "outputs": [],
      "stateMutability": "nonpayable",
      "type": "function"
    },
    {
      "inputs": [
        {
          "internalType": "address",
          "name": "from",
          "type": "address"
        },
        {
          "internalType": "address",
          "name": "to",
          "type": "address"
        },
        {
          "internalType": "uint256",
          "name": "tokenId",
          "type": "uint256"
        },
        {
          "internalType": "bytes",
          "name": "_data",
          "type": "bytes"
        }
      ],
      "name": "safeTransferFrom",
      "outputs": [],
      "stateMutability": "nonpayable",
      "type": "function"
    },
    {
      "inputs": [
        {
          "internalType": "address",
          "name": "operator",
          "type": "address"
        },
        {
          "internalType": "bool",
          "name": "approved",
          "type": "bool"
        }
      ],
      "name": "setApprovalForAll",
      "outputs": [],
      "stateMutability": "nonpayable",
      "type": "function"
    },
    {
      "inputs": [
        {
          "internalType": "bytes4",
          "name": "interfaceId",
          "type": "bytes4"
        }
      ],
      "name": "supportsInterface",
      "outputs": [
        {
          "internalType": "bool",
          "name": "",
          "type": "bool"
        }
      ],
      "stateMutability": "view",
      "type": "function",
      "constant": true
    },
    {
      "inputs": [],
      "name": "symbol",
      "outputs": [
        {
          "internalType": "string",
          "name": "",
          "type": "string"
        }
      ],
      "stateMutability": "view",
      "type": "function",
      "constant": true
    },
    {
      "inputs": [
        {
          "internalType": "uint256",
          "name": "index",
          "type": "uint256"
        }
      ],
      "name": "tokenByIndex",
      "outputs": [
        {
          "internalType": "uint256",
          "name": "",
          "type": "uint256"
        }
      ],
      "stateMutability": "view",
      "type": "function",
      "constant": true
    },
    {
      "inputs": [
        {
          "internalType": "address",
          "name": "owner",
          "type": "address"
        },
        {
          "internalType": "uint256",
          "name": "index",
          "type": "uint256"
        }
      ],
      "name": "tokenOfOwnerByIndex",
      "outputs": [
        {
          "internalType": "uint256",
          "name": "",
          "type": "uint256"
        }
      ],
      "stateMutability": "view",
      "type": "function",
      "constant": true
    },
    {
      "inputs": [
        {
          "internalType": "uint256",
          "name": "tokenId",
          "type": "uint256"
        }
      ],
      "name": "tokenURI",
      "outputs": [
        {
          "internalType": "string",
          "name": "",
          "type": "string"
        }
      ],
      "stateMutability": "view",
      "type": "function",
      "constant": true
    },
    {
      "inputs": [],
      "name": "totalSupply",
      "outputs": [
        {
          "internalType": "uint256",
          "name": "",
          "type": "uint256"
        }
      ],
      "stateMutability": "view",
      "type": "function",
      "constant": true
    },
    {
      "inputs": [
        {
          "internalType": "address",
          "name": "from",
          "type": "address"
        },
        {
          "internalType": "address",
          "name": "to",
          "type": "address"
        },
        {
          "internalType": "uint256",
          "name": "tokenId",
          "type": "uint256"
        }
      ],
      "name": "transferFrom",
      "outputs": [],
      "stateMutability": "nonpayable",
      "type": "function"
    },
    {
      "inputs": [
        {
          "internalType": "uint256",
          "name": "price",
          "type": "uint256"
        },
        {
          "internalType": "string",
          "name": "tokenURI",
          "type": "string"
        },
        {
          "internalType": "uint256",
          "name": "_bidincrement",
          "type": "uint256"
        }
      ],
      "name": "addArtItem",
      "outputs": [],
      "stateMutability": "nonpayable",
      "type": "function"
    },
    {
      "inputs": [
        {
          "internalType": "uint256",
          "name": "id",
          "type": "uint256"
        }
      ],
      "name": "getArtItem",
      "outputs": [
        {
          "internalType": "uint256",
          "name": "",
          "type": "uint256"
        },
        {
          "internalType": "uint256",
          "name": "",
          "type": "uint256"
        },
        {
          "internalType": "string",
          "name": "",
          "type": "string"
        },
        {
          "internalType": "uint256",
          "name": "",
          "type": "uint256"
        }
      ],
      "stateMutability": "view",
      "type": "function",
      "constant": true
    },
    {
      "inputs": [
        {
          "internalType": "uint256",
          "name": "id",
          "type": "uint256"
        }
      ],
      "name": "cancelAuction",
      "outputs": [
        {
          "internalType": "bool",
          "name": "success",
          "type": "bool"
        }
      ],
      "stateMutability": "payable",
      "type": "function",
      "payable": true
    },
    {
      "inputs": [
        {
          "internalType": "uint256",
          "name": "id",
          "type": "uint256"
        }
      ],
      "name": "placeBid",
      "outputs": [
        {
          "internalType": "bool",
          "name": "success",
          "type": "bool"
        }
      ],
      "stateMutability": "payable",
      "type": "function",
      "payable": true
    },
    {
      "inputs": [
        {
          "internalType": "uint256",
          "name": "id",
          "type": "uint256"
        }
      ],
      "name": "withdraw",
      "outputs": [
        {
          "internalType": "bool",
          "name": "success",
          "type": "bool"
        }
      ],
      "stateMutability": "payable",
      "type": "function",
      "payable": true
    }
  ],
  "bytecode": "0x60806040526000601160006101000a81548160ff0219169083151502179055506000601160016101000a81548160ff0219169083151502179055503480156200004757600080fd5b506040518060400160405280600481526020017f44415254000000000000000000000000000000000000000000000000000000008152506040518060400160405280600381526020017f4152540000000000000000000000000000000000000000000000000000000000815250620000cc6301ffc9a760e01b6200018f60201b60201c565b8160069080519060200190620000e492919062000298565b508060079080519060200190620000fd92919062000298565b50620001166380ac58cd60e01b6200018f60201b60201c565b6200012e635b5e139f60e01b6200018f60201b60201c565b6200014663780e9d6360e01b6200018f60201b60201c565b505033600b60006101000a81548173ffffffffffffffffffffffffffffffffffffffff021916908373ffffffffffffffffffffffffffffffffffffffff16021790555062000347565b63ffffffff60e01b817bffffffffffffffffffffffffffffffffffffffffffffffffffffffff191614156200022c576040517f08c379a000000000000000000000000000000000000000000000000000000000815260040180806020018281038252601c8152602001807f4552433136353a20696e76616c696420696e746572666163652069640000000081525060200191505060405180910390fd5b6001600080837bffffffffffffffffffffffffffffffffffffffffffffffffffffffff19167bffffffffffffffffffffffffffffffffffffffffffffffffffffffff1916815260200190815260200160002060006101000a81548160ff02191690831515021790555050565b828054600181600116156101000203166002900490600052602060002090601f016020900481019282601f10620002db57805160ff19168380011785556200030c565b828001600101855582156200030c579182015b828111156200030b578251825591602001919060010190620002ee565b5b5090506200031b91906200031f565b5090565b6200034491905b808211156200034057600081600090555060010162000326565b5090565b90565b61481180620003576000396000f3fe6080604052600436106101b75760003560e01c80634f6ccce7116100ec57806396b5a7551161008a578063aa46a40011610064578063aa46a40014610be9578063b88d4fde14610c14578063c87b56dd14610d26578063e985e9c514610dda576101b7565b806396b5a75514610b005780639979ef4514610b46578063a22cb46514610b8c576101b7565b80636c0360eb116100c65780636c0360eb1461092457806370a08231146109b45780638da5cb5b14610a1957806395d89b4114610a70576101b7565b80634f6ccce71461077e5780636352211e146107cd5780636408f9c014610848576101b7565b806323b872dd116101595780632f745c59116101335780632f745c59146105e35780633f9942ff1461065257806342842e0e14610681578063454a2ab3146106fc576101b7565b806323b872dd146104b357806326fe30651461052e5780632e1a7d4d1461059d576101b7565b8063095ea7b311610195578063095ea7b31461033957806314797de71461039457806318160ddd146103bf57806321f004eb146103ea576101b7565b806301ffc9a7146101bc57806306fdde031461022e578063081812fc146102be575b600080fd5b3480156101c857600080fd5b50610214600480360360208110156101df57600080fd5b8101908080357bffffffffffffffffffffffffffffffffffffffffffffffffffffffff19169060200190929190505050610e63565b604051808215151515815260200191505060405180910390f35b34801561023a57600080fd5b50610243610eca565b6040518080602001828103825283818151815260200191508051906020019080838360005b83811015610283578082015181840152602081019050610268565b50505050905090810190601f1680156102b05780820380516001836020036101000a031916815260200191505b509250505060405180910390f35b3480156102ca57600080fd5b506102f7600480360360208110156102e157600080fd5b8101908080359060200190929190505050610f6c565b604051808273ffffffffffffffffffffffffffffffffffffffff1673ffffffffffffffffffffffffffffffffffffffff16815260200191505060405180910390f35b34801561034557600080fd5b506103926004803603604081101561035c57600080fd5b81019080803573ffffffffffffffffffffffffffffffffffffffff16906020019092919080359060200190929190505050611007565b005b3480156103a057600080fd5b506103a961114b565b6040518082815260200191505060405180910390f35b3480156103cb57600080fd5b506103d4611151565b6040518082815260200191505060405180910390f35b3480156103f657600080fd5b506104236004803603602081101561040d57600080fd5b8101908080359060200190929190505050611162565b6040518085815260200184815260200180602001838152602001828103825284818151815260200191508051906020019080838360005b8381101561047557808201518184015260208101905061045a565b50505050905090810190601f1680156104a25780820380516001836020036101000a031916815260200191505b509550505050505060405180910390f35b3480156104bf57600080fd5b5061052c600480360360608110156104d657600080fd5b81019080803573ffffffffffffffffffffffffffffffffffffffff169060200190929190803573ffffffffffffffffffffffffffffffffffffffff169060200190929190803590602001909291905050506113fc565b005b34801561053a57600080fd5b506105876004803603604081101561055157600080fd5b8101908080359060200190929190803573ffffffffffffffffffffffffffffffffffffffff169060200190929190505050611472565b6040518082815260200191505060405180910390f35b6105c9600480360360208110156105b357600080fd5b8101908080359060200190929190505050611497565b604051808215151515815260200191505060405180910390f35b3480156105ef57600080fd5b5061063c6004803603604081101561060657600080fd5b81019080803573ffffffffffffffffffffffffffffffffffffffff16906020019092919080359060200190929190505050611929565b6040518082815260200191505060405180910390f35b34801561065e57600080fd5b50610667611984565b604051808215151515815260200191505060405180910390f35b34801561068d57600080fd5b506106fa600480360360608110156106a457600080fd5b81019080803573ffffffffffffffffffffffffffffffffffffffff169060200190929190803573ffffffffffffffffffffffffffffffffffffffff16906020019092919080359060200190929190505050611997565b005b34801561070857600080fd5b506107356004803603602081101561071f57600080fd5b81019080803590602001909291905050506119b7565b604051808381526020018273ffffffffffffffffffffffffffffffffffffffff1673ffffffffffffffffffffffffffffffffffffffff1681526020019250505060405180910390f35b34801561078a57600080fd5b506107b7600480360360208110156107a157600080fd5b81019080803590602001909291905050506119fb565b6040518082815260200191505060405180910390f35b3480156107d957600080fd5b50610806600480360360208110156107f057600080fd5b8101908080359060200190929190505050611a1e565b604051808273ffffffffffffffffffffffffffffffffffffffff1673ffffffffffffffffffffffffffffffffffffffff16815260200191505060405180910390f35b34801561085457600080fd5b506109226004803603606081101561086b57600080fd5b81019080803590602001909291908035906020019064010000000081111561089257600080fd5b8201836020820111156108a457600080fd5b803590602001918460018302840111640100000000831117156108c657600080fd5b91908080601f016020809104026020016040519081016040528093929190818152602001838380828437600081840152601f19601f82011690508083019250505050505050919291929080359060200190929190505050611a55565b005b34801561093057600080fd5b50610939611bd3565b6040518080602001828103825283818151815260200191508051906020019080838360005b8381101561097957808201518184015260208101905061095e565b50505050905090810190601f1680156109a65780820380516001836020036101000a031916815260200191505b509250505060405180910390f35b3480156109c057600080fd5b50610a03600480360360208110156109d757600080fd5b81019080803573ffffffffffffffffffffffffffffffffffffffff169060200190929190505050611c75565b6040518082815260200191505060405180910390f35b348015610a2557600080fd5b50610a2e611d4a565b604051808273ffffffffffffffffffffffffffffffffffffffff1673ffffffffffffffffffffffffffffffffffffffff16815260200191505060405180910390f35b348015610a7c57600080fd5b50610a85611d70565b6040518080602001828103825283818151815260200191508051906020019080838360005b83811015610ac5578082015181840152602081019050610aaa565b50505050905090810190601f168015610af25780820380516001836020036101000a031916815260200191505b509250505060405180910390f35b610b2c60048036036020811015610b1657600080fd5b8101908080359060200190929190505050611e12565b604051808215151515815260200191505060405180910390f35b610b7260048036036020811015610b5c57600080fd5b8101908080359060200190929190505050612299565b604051808215151515815260200191505060405180910390f35b348015610b9857600080fd5b50610be760048036036040811015610baf57600080fd5b81019080803573ffffffffffffffffffffffffffffffffffffffff169060200190929190803515159060200190929190505050612aa2565b005b348015610bf557600080fd5b50610bfe612c5a565b6040518082815260200191505060405180910390f35b348015610c2057600080fd5b50610d2460048036036080811015610c3757600080fd5b81019080803573ffffffffffffffffffffffffffffffffffffffff169060200190929190803573ffffffffffffffffffffffffffffffffffffffff1690602001909291908035906020019092919080359060200190640100000000811115610c9e57600080fd5b820183602082011115610cb057600080fd5b80359060200191846001830284011164010000000083111715610cd257600080fd5b91908080601f016020809104026020016040519081016040528093929190818152602001838380828437600081840152601f19601f820116905080830192505050505050509192919290505050612c60565b005b348015610d3257600080fd5b50610d5f60048036036020811015610d4957600080fd5b8101908080359060200190929190505050612cd8565b6040518080602001828103825283818151815260200191508051906020019080838360005b83811015610d9f578082015181840152602081019050610d84565b50505050905090810190601f168015610dcc5780820380516001836020036101000a031916815260200191505b509250505060405180910390f35b348015610de657600080fd5b50610e4960048036036040811015610dfd57600080fd5b81019080803573ffffffffffffffffffffffffffffffffffffffff169060200190929190803573ffffffffffffffffffffffffffffffffffffffff169060200190929190505050612fc1565b604051808215151515815260200191505060405180910390f35b6000806000837bffffffffffffffffffffffffffffffffffffffffffffffffffffffff19167bffffffffffffffffffffffffffffffffffffffffffffffffffffffff1916815260200190815260200160002060009054906101000a900460ff169050919050565b606060068054600181600116156101000203166002900480601f016020809104026020016040519081016040528092919081815260200182805460018160011615610100020316600290048015610f625780601f10610f3757610100808354040283529160200191610f62565b820191906000526020600020905b815481529060010190602001808311610f4557829003601f168201915b5050505050905090565b6000610f7782613055565b610fcc576040517f08c379a000000000000000000000000000000000000000000000000000000000815260040180806020018281038252602c8152602001806146da602c913960400191505060405180910390fd5b6004600083815260200190815260200160002060009054906101000a900473ffffffffffffffffffffffffffffffffffffffff169050919050565b600061101282611a1e565b90508073ffffffffffffffffffffffffffffffffffffffff168373ffffffffffffffffffffffffffffffffffffffff161415611099576040517f08c379a000000000000000000000000000000000000000000000000000000000815260040180806020018281038252602181526020018061478a6021913960400191505060405180910390fd5b8073ffffffffffffffffffffffffffffffffffffffff166110b8613072565b73ffffffffffffffffffffffffffffffffffffffff1614806110e757506110e6816110e1613072565b612fc1565b5b61113c576040517f08c379a000000000000000000000000000000000000000000000000000000000815260040180806020018281038252603881526020018061462d6038913960400191505060405180910390fd5b611146838361307a565b505050565b600d5481565b600061115d6002613133565b905090565b6000806060600084600a600082815260200190815260200160002060030160009054906101000a900460ff16611200576040517f08c379a00000000000000000000000000000000000000000000000000000000081526004018080602001828103825260098152602001807f4e6f7420466f756e64000000000000000000000000000000000000000000000081525060200191505060405180910390fd5b6112086143c6565b600a60008881526020019081526020016000206040518060a00160405290816000820160009054906101000a900473ffffffffffffffffffffffffffffffffffffffff1673ffffffffffffffffffffffffffffffffffffffff1673ffffffffffffffffffffffffffffffffffffffff16815260200160018201548152602001600282018054600181600116156101000203166002900480601f01602080910402602001604051908101604052809291908181526020018280546001816001161561010002031660029004801561131f5780601f106112f45761010080835404028352916020019161131f565b820191906000526020600020905b81548152906001019060200180831161130257829003601f168201915b505050505081526020016003820160009054906101000a900460ff16151515158152602001600482015481525050905061135761440d565b60106000898152602001908152602001600020604051806040016040529081600082015481526020016001820160009054906101000a900473ffffffffffffffffffffffffffffffffffffffff1673ffffffffffffffffffffffffffffffffffffffff1673ffffffffffffffffffffffffffffffffffffffff168152505090508782602001518360400151836000015181915096509650965096505050509193509193565b61140d611407613072565b82613148565b611462576040517f08c379a00000000000000000000000000000000000000000000000000000000081526004018080602001828103825260318152602001806147ab6031913960400191505060405180910390fd5b61146d83838361323c565b505050565b600f602052816000526040600020602052806000526040600020600091509150505481565b6000816114a26143c6565b600a60008381526020019081526020016000206040518060a00160405290816000820160009054906101000a900473ffffffffffffffffffffffffffffffffffffffff1673ffffffffffffffffffffffffffffffffffffffff1673ffffffffffffffffffffffffffffffffffffffff16815260200160018201548152602001600282018054600181600116156101000203166002900480601f0160208091040260200160405190810160405280929190818152602001828054600181600116156101000203166002900480156115b95780601f1061158e576101008083540402835291602001916115b9565b820191906000526020600020905b81548152906001019060200180831161159c57829003601f168201915b505050505081526020016003820160009054906101000a900460ff161515151581526020016004820154815250509050806000015173ffffffffffffffffffffffffffffffffffffffff163373ffffffffffffffffffffffffffffffffffffffff16141561162657600080fd5b60011515600e60009054906101000a900460ff1615151461164657600080fd5b60011515601160009054906101000a900460ff1615151461166657600080fd5b60008060006010600088815260200190815260200160002090508060010160009054906101000a900473ffffffffffffffffffffffffffffffffffffffff1673ffffffffffffffffffffffffffffffffffffffff163373ffffffffffffffffffffffffffffffffffffffff16141561177b578060010160009054906101000a900473ffffffffffffffffffffffffffffffffffffffff169250600f600088815260200190815260200160002060008260010160009054906101000a900473ffffffffffffffffffffffffffffffffffffffff1673ffffffffffffffffffffffffffffffffffffffff1673ffffffffffffffffffffffffffffffffffffffff1681526020019081526020016000205491506117d2565b339250600f600088815260200190815260200160002060008473ffffffffffffffffffffffffffffffffffffffff1673ffffffffffffffffffffffffffffffffffffffff1681526020019081526020016000205491505b60008214156117e057600080fd5b81600f600089815260200190815260200160002060008573ffffffffffffffffffffffffffffffffffffffff1673ffffffffffffffffffffffffffffffffffffffff168152602001908152602001600020600082825403925050819055503373ffffffffffffffffffffffffffffffffffffffff166108fc839081150290604051600060405180830381858888f1935050505061187c57600080fd5b7f0ec497a8ae5b1ba29c60470ef651def995fac3deebbdcc56c47a4e5f51a4c2bd338484604051808473ffffffffffffffffffffffffffffffffffffffff1673ffffffffffffffffffffffffffffffffffffffff1681526020018373ffffffffffffffffffffffffffffffffffffffff1673ffffffffffffffffffffffffffffffffffffffff168152602001828152602001935050505060405180910390a1600195505050505050919050565b600061197c82600160008673ffffffffffffffffffffffffffffffffffffffff1673ffffffffffffffffffffffffffffffffffffffff16815260200190815260200160002061347f90919063ffffffff16565b905092915050565b600e60009054906101000a900460ff1681565b6119b283838360405180602001604052806000815250612c60565b505050565b60106020528060005260406000206000915090508060000154908060010160009054906101000a900473ffffffffffffffffffffffffffffffffffffffff16905082565b600080611a1283600261349990919063ffffffff16565b50905080915050919050565b6000611a4e8260405180606001604052806029815260200161468f6029913960026134c89092919063ffffffff16565b9050919050565b6000831015611acc576040517f08c379a000000000000000000000000000000000000000000000000000000000815260040180806020018281038252601c8152602001807f50726963652063616e6e6f74206265206c65737373207468616e20300000000081525060200191505060405180910390fd5b600d600081548092919060010191905055506040518060a001604052803373ffffffffffffffffffffffffffffffffffffffff16815260200184815260200183815260200160011515815260200182815250600a6000600d54815260200190815260200160002060008201518160000160006101000a81548173ffffffffffffffffffffffffffffffffffffffff021916908373ffffffffffffffffffffffffffffffffffffffff160217905550602082015181600101556040820151816002019080519060200190611ba092919061443d565b5060608201518160030160006101000a81548160ff02191690831515021790555060808201518160040155905050505050565b606060098054600181600116156101000203166002900480601f016020809104026020016040519081016040528092919081815260200182805460018160011615610100020316600290048015611c6b5780601f10611c4057610100808354040283529160200191611c6b565b820191906000526020600020905b815481529060010190602001808311611c4e57829003601f168201915b5050505050905090565b60008073ffffffffffffffffffffffffffffffffffffffff168273ffffffffffffffffffffffffffffffffffffffff161415611cfc576040517f08c379a000000000000000000000000000000000000000000000000000000000815260040180806020018281038252602a815260200180614665602a913960400191505060405180910390fd5b611d43600160008473ffffffffffffffffffffffffffffffffffffffff1673ffffffffffffffffffffffffffffffffffffffff1681526020019081526020016000206134e7565b9050919050565b600b60009054906101000a900473ffffffffffffffffffffffffffffffffffffffff1681565b606060078054600181600116156101000203166002900480601f016020809104026020016040519081016040528092919081815260200182805460018160011615610100020316600290048015611e085780601f10611ddd57610100808354040283529160200191611e08565b820191906000526020600020905b815481529060010190602001808311611deb57829003601f168201915b5050505050905090565b600081611e1d6143c6565b600a60008381526020019081526020016000206040518060a00160405290816000820160009054906101000a900473ffffffffffffffffffffffffffffffffffffffff1673ffffffffffffffffffffffffffffffffffffffff1673ffffffffffffffffffffffffffffffffffffffff16815260200160018201548152602001600282018054600181600116156101000203166002900480601f016020809104026020016040519081016040528092919081815260200182805460018160011615610100020316600290048015611f345780601f10611f0957610100808354040283529160200191611f34565b820191906000526020600020905b815481529060010190602001808311611f1757829003601f168201915b505050505081526020016003820160009054906101000a900460ff161515151581526020016004820154815250509050806000015173ffffffffffffffffffffffffffffffffffffffff163373ffffffffffffffffffffffffffffffffffffffff1614611fa057600080fd5b600e60009054906101000a900460ff1615611fba57600080fd5b6001600e60006101000a81548160ff02191690831515021790555060011515601160009054906101000a900460ff161515141561226257611ff96143c6565b600a60008681526020019081526020016000206040518060a00160405290816000820160009054906101000a900473ffffffffffffffffffffffffffffffffffffffff1673ffffffffffffffffffffffffffffffffffffffff1673ffffffffffffffffffffffffffffffffffffffff16815260200160018201548152602001600282018054600181600116156101000203166002900480601f0160208091040260200160405190810160405280929190818152602001828054600181600116156101000203166002900480156121105780601f106120e557610100808354040283529160200191612110565b820191906000526020600020905b8154815290600101906020018083116120f357829003601f168201915b505050505081526020016003820160009054906101000a900460ff1615151515815260200160048201548152505090506000601060008781526020019081526020016000209050600c6000815480929190600101919050555061217533600c546134fc565b612185600c54836040015161351a565b60008160000154141561219757600080fd5b8060000154600f600088815260200190815260200160002060008360010160009054906101000a900473ffffffffffffffffffffffffffffffffffffffff1673ffffffffffffffffffffffffffffffffffffffff1673ffffffffffffffffffffffffffffffffffffffff168152602001908152602001600020600082825403925050819055503373ffffffffffffffffffffffffffffffffffffffff166108fc82600001549081150290604051600060405180830381858888f1935050505061225f57600080fd5b50505b7f462b6ca7f632601af1295aeb320851f50e8e630a309173f23535845ea4bfb3b960405160405180910390a1600192505050919050565b6000600e60009054906101000a900460ff16156122b557600080fd5b816122be6143c6565b600a60008381526020019081526020016000206040518060a00160405290816000820160009054906101000a900473ffffffffffffffffffffffffffffffffffffffff1673ffffffffffffffffffffffffffffffffffffffff1673ffffffffffffffffffffffffffffffffffffffff16815260200160018201548152602001600282018054600181600116156101000203166002900480601f0160208091040260200160405190810160405280929190818152602001828054600181600116156101000203166002900480156123d55780601f106123aa576101008083540402835291602001916123d5565b820191906000526020600020905b8154815290600101906020018083116123b857829003601f168201915b505050505081526020016003820160009054906101000a900460ff161515151581526020016004820154815250509050806000015173ffffffffffffffffffffffffffffffffffffffff163373ffffffffffffffffffffffffffffffffffffffff16141561244257600080fd5b8361244b6143c6565b600a60008381526020019081526020016000206040518060a00160405290816000820160009054906101000a900473ffffffffffffffffffffffffffffffffffffffff1673ffffffffffffffffffffffffffffffffffffffff1673ffffffffffffffffffffffffffffffffffffffff16815260200160018201548152602001600282018054600181600116156101000203166002900480601f0160208091040260200160405190810160405280929190818152602001828054600181600116156101000203166002900480156125625780601f1061253757610100808354040283529160200191612562565b820191906000526020600020905b81548152906001019060200180831161254557829003601f168201915b505050505081526020016003820160009054906101000a900460ff16151515158152602001600482015481525050905080602001513410156125a357600080fd5b60003414156125b157600080fd5b60006010600088815260200190815260200160002090506001601160006101000a81548160ff0219169083151502179055506125eb6143c6565b600a60008981526020019081526020016000206040518060a00160405290816000820160009054906101000a900473ffffffffffffffffffffffffffffffffffffffff1673ffffffffffffffffffffffffffffffffffffffff1673ffffffffffffffffffffffffffffffffffffffff16815260200160018201548152602001600282018054600181600116156101000203166002900480601f0160208091040260200160405190810160405280929190818152602001828054600181600116156101000203166002900480156127025780601f106126d757610100808354040283529160200191612702565b820191906000526020600020905b8154815290600101906020018083116126e557829003601f168201915b505050505081526020016003820160009054906101000a900460ff161515151581526020016004820154815250509050600034600f60008b815260200190815260200160002060003373ffffffffffffffffffffffffffffffffffffffff1673ffffffffffffffffffffffffffffffffffffffff168152602001908152602001600020540190508260000154811161279957600080fd5b6000600f60008b815260200190815260200160002060008560010160009054906101000a900473ffffffffffffffffffffffffffffffffffffffff1673ffffffffffffffffffffffffffffffffffffffff1673ffffffffffffffffffffffffffffffffffffffff16815260200190815260200160002054905081600f60008c815260200190815260200160002060003373ffffffffffffffffffffffffffffffffffffffff1673ffffffffffffffffffffffffffffffffffffffff1681526020019081526020016000208190555080821161289f578083608001518301111561288a5780846000018190555061289a565b8260800151820184600001819055505b6129ba565b8360010160009054906101000a900473ffffffffffffffffffffffffffffffffffffffff1673ffffffffffffffffffffffffffffffffffffffff163373ffffffffffffffffffffffffffffffffffffffff16146129b657338460010160006101000a81548173ffffffffffffffffffffffffffffffffffffffff021916908373ffffffffffffffffffffffffffffffffffffffff160217905550808360800151830111156129a55760001515601160019054906101000a900460ff1615151415612971578084600001819055506129a0565b826080015183602001510184600001819055506001601160016101000a81548160ff0219169083151502179055505b6129b5565b8260800151820184600001819055505b5b8190505b7ff152f4ff5e488c55370a2d53925a55055228ebd8ec95bd0251bbb299e48786b033838660010160009054906101000a900473ffffffffffffffffffffffffffffffffffffffff16848860000154604051808673ffffffffffffffffffffffffffffffffffffffff1673ffffffffffffffffffffffffffffffffffffffff1681526020018581526020018473ffffffffffffffffffffffffffffffffffffffff1673ffffffffffffffffffffffffffffffffffffffff1681526020018381526020018281526020019550505050505060405180910390a1600198505050505050505050919050565b612aaa613072565b73ffffffffffffffffffffffffffffffffffffffff168273ffffffffffffffffffffffffffffffffffffffff161415612b4b576040517f08c379a00000000000000000000000000000000000000000000000000000000081526004018080602001828103825260198152602001807f4552433732313a20617070726f766520746f2063616c6c65720000000000000081525060200191505060405180910390fd5b8060056000612b58613072565b73ffffffffffffffffffffffffffffffffffffffff1673ffffffffffffffffffffffffffffffffffffffff16815260200190815260200160002060008473ffffffffffffffffffffffffffffffffffffffff1673ffffffffffffffffffffffffffffffffffffffff16815260200190815260200160002060006101000a81548160ff0219169083151502179055508173ffffffffffffffffffffffffffffffffffffffff16612c05613072565b73ffffffffffffffffffffffffffffffffffffffff167f17307eab39ab6107e8899845ad3d59bd9653f200f220920489ca2b5937696c3183604051808215151515815260200191505060405180910390a35050565b600c5481565b612c71612c6b613072565b83613148565b612cc6576040517f08c379a00000000000000000000000000000000000000000000000000000000081526004018080602001828103825260318152602001806147ab6031913960400191505060405180910390fd5b612cd2848484846135a4565b50505050565b6060612ce382613055565b612d38576040517f08c379a000000000000000000000000000000000000000000000000000000000815260040180806020018281038252602f81526020018061475b602f913960400191505060405180910390fd5b6060600860008481526020019081526020016000208054600181600116156101000203166002900480601f016020809104026020016040519081016040528092919081815260200182805460018160011615610100020316600290048015612de15780601f10612db657610100808354040283529160200191612de1565b820191906000526020600020905b815481529060010190602001808311612dc457829003601f168201915b50505050509050600060098054600181600116156101000203166002900490501415612e105780915050612fbc565b600081511115612ee9576009816040516020018083805460018160011615610100020316600290048015612e7b5780601f10612e59576101008083540402835291820191612e7b565b820191906000526020600020905b815481529060010190602001808311612e67575b505082805190602001908083835b60208310612eac5780518252602082019150602081019050602083039250612e89565b6001836020036101000a03801982511681845116808217855250505050505090500192505050604051602081830303815290604052915050612fbc565b6009612ef484613616565b6040516020018083805460018160011615610100020316600290048015612f525780601f10612f30576101008083540402835291820191612f52565b820191906000526020600020905b815481529060010190602001808311612f3e575b505082805190602001908083835b60208310612f835780518252602082019150602081019050602083039250612f60565b6001836020036101000a038019825116818451168082178552505050505050905001925050506040516020818303038152906040529150505b919050565b6000600560008473ffffffffffffffffffffffffffffffffffffffff1673ffffffffffffffffffffffffffffffffffffffff16815260200190815260200160002060008373ffffffffffffffffffffffffffffffffffffffff1673ffffffffffffffffffffffffffffffffffffffff16815260200190815260200160002060009054906101000a900460ff16905092915050565b600061306b82600261374690919063ffffffff16565b9050919050565b600033905090565b816004600083815260200190815260200160002060006101000a81548173ffffffffffffffffffffffffffffffffffffffff021916908373ffffffffffffffffffffffffffffffffffffffff160217905550808273ffffffffffffffffffffffffffffffffffffffff166130ed83611a1e565b73ffffffffffffffffffffffffffffffffffffffff167f8c5be1e5ebec7d5bd14f71427d1e84f3dd0314c0f7b2291e5b200ac8c7c3b92560405160405180910390a45050565b600061314182600001613760565b9050919050565b600061315382613055565b6131a8576040517f08c379a000000000000000000000000000000000000000000000000000000000815260040180806020018281038252602c815260200180614601602c913960400191505060405180910390fd5b60006131b383611a1e565b90508073ffffffffffffffffffffffffffffffffffffffff168473ffffffffffffffffffffffffffffffffffffffff16148061322257508373ffffffffffffffffffffffffffffffffffffffff1661320a84610f6c565b73ffffffffffffffffffffffffffffffffffffffff16145b8061323357506132328185612fc1565b5b91505092915050565b8273ffffffffffffffffffffffffffffffffffffffff1661325c82611a1e565b73ffffffffffffffffffffffffffffffffffffffff16146132c8576040517f08c379a00000000000000000000000000000000000000000000000000000000081526004018080602001828103825260298152602001806147326029913960400191505060405180910390fd5b600073ffffffffffffffffffffffffffffffffffffffff168273ffffffffffffffffffffffffffffffffffffffff16141561334e576040517f08c379a00000000000000000000000000000000000000000000000000000000081526004018080602001828103825260248152602001806145b76024913960400191505060405180910390fd5b613359838383613771565b61336460008261307a565b6133b581600160008673ffffffffffffffffffffffffffffffffffffffff1673ffffffffffffffffffffffffffffffffffffffff16815260200190815260200160002061377690919063ffffffff16565b5061340781600160008573ffffffffffffffffffffffffffffffffffffffff1673ffffffffffffffffffffffffffffffffffffffff16815260200190815260200160002061379090919063ffffffff16565b5061341e818360026137aa9092919063ffffffff16565b50808273ffffffffffffffffffffffffffffffffffffffff168473ffffffffffffffffffffffffffffffffffffffff167fddf252ad1be2c89b69c2b068fc378daa952ba7f163c4a11628f55a4df523b3ef60405160405180910390a4505050565b600061348e83600001836137df565b60001c905092915050565b6000806000806134ac8660000186613862565b915091508160001c8160001c8090509350935050509250929050565b60006134db846000018460001b846138fb565b60001c90509392505050565b60006134f5826000016139f1565b9050919050565b613516828260405180602001604052806000815250613a02565b5050565b61352382613055565b613578576040517f08c379a000000000000000000000000000000000000000000000000000000000815260040180806020018281038252602c815260200180614706602c913960400191505060405180910390fd5b8060086000848152602001908152602001600020908051906020019061359f9291906144bd565b505050565b6135af84848461323c565b6135bb84848484613a73565b613610576040517f08c379a00000000000000000000000000000000000000000000000000000000081526004018080602001828103825260328152602001806145856032913960400191505060405180910390fd5b50505050565b6060600082141561365e576040518060400160405280600181526020017f30000000000000000000000000000000000000000000000000000000000000008152509050613741565b600082905060005b60008214613688578080600101915050600a828161368057fe5b049150613666565b6060816040519080825280601f01601f1916602001820160405280156136bd5781602001600182028036833780820191505090505b50905060006001830390508593505b6000841461373957600a84816136de57fe5b0660300160f81b828280600190039350815181106136f857fe5b60200101907effffffffffffffffffffffffffffffffffffffffffffffffffffffffffffff1916908160001a905350600a848161373157fe5b0493506136cc565b819450505050505b919050565b6000613758836000018360001b613cb8565b905092915050565b600081600001805490509050919050565b505050565b6000613788836000018360001b613cdb565b905092915050565b60006137a2836000018360001b613dc3565b905092915050565b60006137d6846000018460001b8473ffffffffffffffffffffffffffffffffffffffff1660001b613e33565b90509392505050565b600081836000018054905011613840576040517f08c379a00000000000000000000000000000000000000000000000000000000081526004018080602001828103825260228152602001806145636022913960400191505060405180910390fd5b82600001828154811061384f57fe5b9060005260206000200154905092915050565b600080828460000180549050116138c4576040517f08c379a00000000000000000000000000000000000000000000000000000000081526004018080602001828103825260228152602001806146b86022913960400191505060405180910390fd5b60008460000184815481106138d557fe5b906000526020600020906002020190508060000154816001015492509250509250929050565b600080846001016000858152602001908152602001600020549050600081141583906139c2576040517f08c379a00000000000000000000000000000000000000000000000000000000081526004018080602001828103825283818151815260200191508051906020019080838360005b8381101561398757808201518184015260208101905061396c565b50505050905090810190601f1680156139b45780820380516001836020036101000a031916815260200191505b509250505060405180910390fd5b508460000160018203815481106139d557fe5b9060005260206000209060020201600101549150509392505050565b600081600001805490509050919050565b613a0c8383613f0f565b613a196000848484613a73565b613a6e576040517f08c379a00000000000000000000000000000000000000000000000000000000081526004018080602001828103825260328152602001806145856032913960400191505060405180910390fd5b505050565b6000613a948473ffffffffffffffffffffffffffffffffffffffff16614103565b613aa15760019050613cb0565b6060613c3763150b7a0260e01b613ab6613072565b888787604051602401808573ffffffffffffffffffffffffffffffffffffffff1673ffffffffffffffffffffffffffffffffffffffff1681526020018473ffffffffffffffffffffffffffffffffffffffff1673ffffffffffffffffffffffffffffffffffffffff16815260200183815260200180602001828103825283818151815260200191508051906020019080838360005b83811015613b66578082015181840152602081019050613b4b565b50505050905090810190601f168015613b935780820380516001836020036101000a031916815260200191505b5095505050505050604051602081830303815290604052907bffffffffffffffffffffffffffffffffffffffffffffffffffffffff19166020820180517bffffffffffffffffffffffffffffffffffffffffffffffffffffffff8381831617835250505050604051806060016040528060328152602001614585603291398773ffffffffffffffffffffffffffffffffffffffff166141169092919063ffffffff16565b90506000818060200190516020811015613c5057600080fd5b8101908080519060200190929190505050905063150b7a0260e01b7bffffffffffffffffffffffffffffffffffffffffffffffffffffffff1916817bffffffffffffffffffffffffffffffffffffffffffffffffffffffff191614925050505b949350505050565b600080836001016000848152602001908152602001600020541415905092915050565b60008083600101600084815260200190815260200160002054905060008114613db75760006001820390506000600186600001805490500390506000866000018281548110613d2657fe5b9060005260206000200154905080876000018481548110613d4357fe5b9060005260206000200181905550600183018760010160008381526020019081526020016000208190555086600001805480613d7b57fe5b60019003818190600052602060002001600090559055866001016000878152602001908152602001600020600090556001945050505050613dbd565b60009150505b92915050565b6000613dcf838361412e565b613e28578260000182908060018154018082558091505060019003906000526020600020016000909190919091505582600001805490508360010160008481526020019081526020016000208190555060019050613e2d565b600090505b92915050565b6000808460010160008581526020019081526020016000205490506000811415613eda57846000016040518060400160405280868152602001858152509080600181540180825580915050600190039060005260206000209060020201600090919091909150600082015181600001556020820151816001015550508460000180549050856001016000868152602001908152602001600020819055506001915050613f08565b82856000016001830381548110613eed57fe5b90600052602060002090600202016001018190555060009150505b9392505050565b600073ffffffffffffffffffffffffffffffffffffffff168273ffffffffffffffffffffffffffffffffffffffff161415613fb2576040517f08c379a00000000000000000000000000000000000000000000000000000000081526004018080602001828103825260208152602001807f4552433732313a206d696e7420746f20746865207a65726f206164647265737381525060200191505060405180910390fd5b613fbb81613055565b1561402e576040517f08c379a000000000000000000000000000000000000000000000000000000000815260040180806020018281038252601c8152602001807f4552433732313a20746f6b656e20616c7265616479206d696e7465640000000081525060200191505060405180910390fd5b61403a60008383613771565b61408b81600160008573ffffffffffffffffffffffffffffffffffffffff1673ffffffffffffffffffffffffffffffffffffffff16815260200190815260200160002061379090919063ffffffff16565b506140a2818360026137aa9092919063ffffffff16565b50808273ffffffffffffffffffffffffffffffffffffffff16600073ffffffffffffffffffffffffffffffffffffffff167fddf252ad1be2c89b69c2b068fc378daa952ba7f163c4a11628f55a4df523b3ef60405160405180910390a45050565b600080823b905060008111915050919050565b60606141258484600085614151565b90509392505050565b600080836001016000848152602001908152602001600020541415905092915050565b6060824710156141ac576040517f08c379a00000000000000000000000000000000000000000000000000000000081526004018080602001828103825260268152602001806145db6026913960400191505060405180910390fd5b6141b585614103565b614227576040517f08c379a000000000000000000000000000000000000000000000000000000000815260040180806020018281038252601d8152602001807f416464726573733a2063616c6c20746f206e6f6e2d636f6e747261637400000081525060200191505060405180910390fd5b600060608673ffffffffffffffffffffffffffffffffffffffff1685876040518082805190602001908083835b602083106142775780518252602082019150602081019050602083039250614254565b6001836020036101000a03801982511681845116808217855250505050505090500191505060006040518083038185875af1925050503d80600081146142d9576040519150601f19603f3d011682016040523d82523d6000602084013e6142de565b606091505b50915091506142ee8282866142fa565b92505050949350505050565b6060831561430a578290506143bf565b60008351111561431d5782518084602001fd5b816040517f08c379a00000000000000000000000000000000000000000000000000000000081526004018080602001828103825283818151815260200191508051906020019080838360005b83811015614384578082015181840152602081019050614369565b50505050905090810190601f1680156143b15780820380516001836020036101000a031916815260200191505b509250505060405180910390fd5b9392505050565b6040518060a00160405280600073ffffffffffffffffffffffffffffffffffffffff1681526020016000815260200160608152602001600015158152602001600081525090565b604051806040016040528060008152602001600073ffffffffffffffffffffffffffffffffffffffff1681525090565b828054600181600116156101000203166002900490600052602060002090601f016020900481019282601f1061447e57805160ff19168380011785556144ac565b828001600101855582156144ac579182015b828111156144ab578251825591602001919060010190614490565b5b5090506144b9919061453d565b5090565b828054600181600116156101000203166002900490600052602060002090601f016020900481019282601f106144fe57805160ff191683800117855561452c565b8280016001018555821561452c579182015b8281111561452b578251825591602001919060010190614510565b5b509050614539919061453d565b5090565b61455f91905b8082111561455b576000816000905550600101614543565b5090565b9056fe456e756d657261626c655365743a20696e646578206f7574206f6620626f756e64734552433732313a207472616e7366657220746f206e6f6e20455243373231526563656976657220696d706c656d656e7465724552433732313a207472616e7366657220746f20746865207a65726f2061646472657373416464726573733a20696e73756666696369656e742062616c616e636520666f722063616c6c4552433732313a206f70657261746f7220717565727920666f72206e6f6e6578697374656e7420746f6b656e4552433732313a20617070726f76652063616c6c6572206973206e6f74206f776e6572206e6f7220617070726f76656420666f7220616c6c4552433732313a2062616c616e636520717565727920666f7220746865207a65726f20616464726573734552433732313a206f776e657220717565727920666f72206e6f6e6578697374656e7420746f6b656e456e756d657261626c654d61703a20696e646578206f7574206f6620626f756e64734552433732313a20617070726f76656420717565727920666f72206e6f6e6578697374656e7420746f6b656e4552433732314d657461646174613a2055524920736574206f66206e6f6e6578697374656e7420746f6b656e4552433732313a207472616e73666572206f6620746f6b656e2074686174206973206e6f74206f776e4552433732314d657461646174613a2055524920717565727920666f72206e6f6e6578697374656e7420746f6b656e4552433732313a20617070726f76616c20746f2063757272656e74206f776e65724552433732313a207472616e736665722063616c6c6572206973206e6f74206f776e6572206e6f7220617070726f766564a2646970667358221220dce2cbe2afa40df0780fdf8a937b16fb71039830c2613464cc6a36729d77094d64736f6c63430006030033",
  "source": "pragma solidity ^0.6.3;\n\nimport \"@openzeppelin/contracts/token/ERC721/ERC721.sol\";\nimport \"@openzeppelin/contracts/math/SafeMath.sol\";\n\ncontract ArtAuction is ERC721 {\n    \n  using SafeMath for uint256;  //For Future use\n\n  //Note: Token is minted after it is sold or after auction ends\n  \n  //variables that remain static or connstant\n   mapping(uint256 => ArtItem) private _artItems;  //Map id to ArtItem\n  address public owner;   //owner\n  \n  //variables that are dynamic or change\n  uint256 public _tokenIds;  //Unique Image ID that are tokenized\n  uint256 public _artItemIds; //Unique ID up images for sale but not tokenized\n  bool public canceled;\n  mapping(uint256=>mapping(address => uint256)) public fundsByBidder; //map tokenid to fundsByBidder\n  mapping(uint256=>bidding) public bid;  //mapping tokenid to bidding\n  bool auctionstarted = false;  //to check if auction started\n  bool firsttime = false;  //to mart first successfull bid\n\n   //Events\n    event LogBid(address bidder, uint bid, address highestBidder, uint highestBid, uint highestBindingBid);   \n    event LogWithdrawal(address withdrawer, address withdrawalAccount, uint amount);\n    event LogCanceled();\n\n  //Art Item \n  struct ArtItem {\n        address payable seller; //address of seller\n        uint256 minbid; //minimum price by artist\n        string tokenURI;  //IPFS URL\n        bool exists;    //token by id exists or not\n        uint bidIncrement; //incremention of bid\n    }\n    \n    struct bidding{\n     uint highestBindingBid; //highestBindingBid of the tokenid\n     address payable highestBidder;\n    }\n\n\n  constructor() public ERC721(\"DART\", \"ART\")  //Initializing ERC721 \n  {   \n    owner=msg.sender;\n  }\n  \n   //modifiers\n  \n  modifier artItemExist(uint256 id) {   //check if item exists\n        require(_artItems[id].exists, \"Not Found\");\n        _;\n    }\n    \n    modifier onlyNotOwner(uint256 id) {            //Check if owner is calling\n      ArtItem memory artItem = _artItems[id];   \n      if (msg.sender == artItem.seller) revert();\n    _;\n     }\n\n    modifier onlyNotCanceled{        //Auction only if is not cancelled\n    if (canceled) revert();\n    _;\n     }\n    modifier onlyOwner(uint256 id)\n     {\n        ArtItem memory artItem = _artItems[id];   \n        if (msg.sender != artItem.seller) revert();\n         _;\n     }\n     \n    modifier minbid(uint256 id)\n    {\n        ArtItem memory artItem = _artItems[id];\n        if(msg.value<artItem.minbid) revert();\n        _;\n    }\n\n  function addArtItem(uint256 price, string memory tokenURI, uint _bidincrement) public {\n        require(price >= 0, \"Price cannot be lesss than 0\");\n\n        _artItemIds++;\n        _artItems[_artItemIds] = ArtItem(msg.sender, price, tokenURI, true, _bidincrement );\n    }\n\n  function getArtItem(uint256 id)   //get art item info\n        public\n        view\n        artItemExist(id)\n        returns (\n            uint256,\n            uint256,\n            string memory,\n            uint256\n        )\n    {\n        ArtItem memory artItem = _artItems[id];\n        bidding memory bid = bid[id]; \n        return (id, artItem.minbid, artItem.tokenURI, bid.highestBindingBid);\n    }\n    \n    //auction functions : \n    \n    //Cancel auction\n    function cancelAuction(uint256 id) public payable\n    onlyOwner(id)\n    onlyNotCanceled()\n    returns (bool success)\n   {\n    canceled = true;\n    \n    if(auctionstarted==true)  //mint token if auctionstarted\n    {\n    ArtItem memory artItem = _artItems[id];   \n    bidding storage bid = bid[id]; \n    _tokenIds++; \n    _safeMint(msg.sender, _tokenIds);\n    _setTokenURI(_tokenIds, artItem.tokenURI);\n     // the auction's owner should be allowed to withdraw the highestBindingBid\n    \n    if (bid.highestBindingBid == 0) revert();\n    fundsByBidder[id][bid.highestBidder] -= bid.highestBindingBid;\n    // send the funds\n    if (!msg.sender.send(bid.highestBindingBid)) revert();\n        } \n    \n    LogCanceled();\n    return true;\n   }\n   \n   function placeBid(uint256 id) public\n    payable\n    onlyNotCanceled\n    onlyNotOwner(id)\n    minbid(id)\n    \n    returns (bool success)\n{\n    // reject payments of 0 ETH\n    if (msg.value == 0) revert();\n    \n    // calculate the user's total bid based on the current amount they've sent to the contract\n    // plus whatever has been sent with this transaction\n    bidding storage bid = bid[id]; \n    auctionstarted = true;\n    ArtItem memory artItem = _artItems[id];  \n\n    uint newBid = fundsByBidder[id][msg.sender] + msg.value;\n    \n\n    // if the user isn't even willing to overbid the highest binding bid, there's nothing for us\n    // to do except revert the transaction.\n    if (newBid <= bid.highestBindingBid) revert();\n\n    // grab the previous highest bid (before updating fundsByBidder, in case msg.sender is the\n    // highestBidder and is just increasing their maximum bid).\n    uint highestBid = fundsByBidder[id][bid.highestBidder];\n\n    fundsByBidder[id][msg.sender] = newBid;\n\n    if (newBid <= highestBid) {\n        // if the user has overbid the highestBindingBid but not the highestBid, we simply\n        // increase the highestBindingBid and leave highestBidder alone.\n\n        // note that this case is impossible if msg.sender == highestBidder because you can never\n        // bid less ETH than you already have.\n        if(newBid+artItem.bidIncrement> highestBid)\n        {\n            bid.highestBindingBid = highestBid;\n        }\n        else\n        {\n            bid.highestBindingBid = newBid+artItem.bidIncrement;\n        }\n    } else {\n        // if msg.sender is already the highest bidder, they must simply be wanting to raise\n        // their maximum bid, in which case we shouldn't increase the highestBindingBid.\n\n        // if the user is NOT highestBidder, and has overbid highestBid completely, we set them\n        // as the new highestBidder and recalculate highestBindingBid.\n\n        if (msg.sender != bid.highestBidder) {\n            bid.highestBidder = msg.sender;\n        if(newBid+artItem.bidIncrement> highestBid)\n        {   if(firsttime==false)\n            bid.highestBindingBid = highestBid;\n            else\n            {bid.highestBindingBid = artItem.minbid + artItem.bidIncrement;\n            firsttime=true;\n            }\n        }\n        else\n        {\n            bid.highestBindingBid = newBid+artItem.bidIncrement;\n        }\n        }\n        highestBid = newBid;\n    }\n\n    LogBid(msg.sender, newBid, bid.highestBidder, highestBid, bid.highestBindingBid);\n    return true;\n    }\n    \n    function withdraw(uint256 id) public payable onlyNotOwner(id)\n    returns (bool success) \n{   \n    require(canceled==true);\n    require(auctionstarted==true);\n    address payable withdrawalAccount;\n    uint withdrawalAmount;\n    bidding storage bid = bid[id]; \n    \n        if (msg.sender == bid.highestBidder) {\n            // the highest bidder should only be allowed to withdraw the difference between their\n            // highest bid and the highestBindingBid\n            withdrawalAccount = bid.highestBidder;\n            withdrawalAmount = fundsByBidder[id][bid.highestBidder];\n        }\n        else {\n            // anyone who participated but did not win the auction should be allowed to withdraw\n            // the full amount of their funds\n            withdrawalAccount = msg.sender;\n            withdrawalAmount = fundsByBidder[id][withdrawalAccount];\n        }\n\n    if (withdrawalAmount == 0) revert();\n\n    fundsByBidder[id][withdrawalAccount] -= withdrawalAmount;\n\n    // send the funds\n    if (!msg.sender.send(withdrawalAmount)) revert();\n\n    LogWithdrawal(msg.sender, withdrawalAccount, withdrawalAmount);\n\n    return true;\n}\n        \n}",
  "sourcePath": "/home/ciberexplosion/Desktop/starter_kit/src/contracts/ArtAuction.sol",
  "compiler": {
    "name": "solc",
    "version": "0.6.3+commit.8dda9521.Emscripten.clang"
  },
  "schemaVersion": "3.3.2",
  "updatedAt": "2020-12-21T20:22:36.786Z",
  "networkType": "ethereum",
  "devdoc": {
    "methods": {
      "approve(address,uint256)": {
        "details": "See {IERC721-approve}."
      },
      "balanceOf(address)": {
        "details": "See {IERC721-balanceOf}."
      },
      "baseURI()": {
        "details": "Returns the base URI set via {_setBaseURI}. This will be automatically added as a prefix in {tokenURI} to each token's URI, or to the token ID if no specific URI is set for that token ID."
      },
      "getApproved(uint256)": {
        "details": "See {IERC721-getApproved}."
      },
      "isApprovedForAll(address,address)": {
        "details": "See {IERC721-isApprovedForAll}."
      },
      "name()": {
        "details": "See {IERC721Metadata-name}."
      },
      "ownerOf(uint256)": {
        "details": "See {IERC721-ownerOf}."
      },
      "safeTransferFrom(address,address,uint256)": {
        "details": "See {IERC721-safeTransferFrom}."
      },
      "safeTransferFrom(address,address,uint256,bytes)": {
        "details": "See {IERC721-safeTransferFrom}."
      },
      "setApprovalForAll(address,bool)": {
        "details": "See {IERC721-setApprovalForAll}."
      },
      "supportsInterface(bytes4)": {
        "details": "See {IERC165-supportsInterface}.     * Time complexity O(1), guaranteed to always use less than 30 000 gas."
      },
      "symbol()": {
        "details": "See {IERC721Metadata-symbol}."
      },
      "tokenByIndex(uint256)": {
        "details": "See {IERC721Enumerable-tokenByIndex}."
      },
      "tokenOfOwnerByIndex(address,uint256)": {
        "details": "See {IERC721Enumerable-tokenOfOwnerByIndex}."
      },
      "tokenURI(uint256)": {
        "details": "See {IERC721Metadata-tokenURI}."
      },
      "totalSupply()": {
        "details": "See {IERC721Enumerable-totalSupply}."
      },
      "transferFrom(address,address,uint256)": {
        "details": "See {IERC721-transferFrom}."
      }
    }
  },
  "userdoc": {
    "methods": {}
  }
}